:100000000C9452010C947A010C947A010C947A01AC
:100010000C947A010C947A010C947A010C947A0174
:100020000C947A010C947A010C947A010C947A0164
:100030000C947A010C947A010C947A010C947A0154
:100040000C9444070C947A010C947A010C947A0174
:100050000C947A010C947A010C947A010C947A0134
:100060000C947A010C947A01000000000000005FFB
:1000700000000007000700147F147F14242A7F2A41
:10008000122313086462364955225000050300000C
:10009000001C2241000041221C0014083E081408E4
:1000A000083E0808005030000008080808080060F2
:1000B00060000020100804023E5149453E00427F86
:1000C000400042615149462141454B311814127F8D
:1000D0001027454545393C4A494930017109050316
:1000E0003649494936064949291E0036360000007E
:1000F0005636000008142241001414141414004150
:100100002214080201510906324979413E7E11113B
:10011000117E7F494949363E414141227F4141227A
:100120001C7F494949417F090909013E4149497AF2
:100130007F0808087F00417F41002040413F017F48
:10014000081422417F404040407F020C027F7F0420
:1001500008107F3E4141413E7F090909063E415159
:10016000215E7F09192946464949493101017F012C
:10017000013F4040403F1F2040201F3F4038403F4C
:100180006314081463070870080761514945430068
:100190007F41410002040810200041417F00040219
:1001A0000102044040404040000102040020545439
:1001B00054787F48444438384444442038444448C0
:1001C0007F3854545418087E0901020C5252523E92
:1001D0007F0804047800447D40002040443D007FB7
:1001E0001028440000417F40007C041804787C08FB
:1001F00004047838444444387C1414140808141453
:10020000187C7C080404084854545420043F44409B
:10021000203C4040207C1C2040201C3C4030403C86
:1002200044281028440C5050503C4464544C440022
:100230000836410010387C101010107C3810103037
:100240007C3010080C3E0C08000000002400270041
:100250002A0000000000250028002B0000000000FC
:1002600023002600290004040404040404040202F8
:100270000202020203030303030301020408102025
:100280004080010204081020010204081020000030
:100290000007000201000003040600000000000047
:1002A00000001D0411241FBECFEFD8E0DEBFCDBF7C
:1002B00011E0A0E0B1E0E4E3F3E102C005900D92AB
:1002C000A232B107D9F713E0A2E2B1E001C01D925A
:1002D000A333B107E1F712E0C4EAD2E004C02297E9
:1002E000FE010E945D09C23AD107C9F70E940F09B9
:1002F0000C9498090C940000AEE0B0E0E2E8F1E064
:100300000C946F090D891E8986E08C831A830983FA
:100310008FEF9FE79E838D839E01275E3F4FCE0127
:1003200001966F89788DA9010E94A0012F813885DF
:10033000020F131FF80110822E96E4E00C948B0933
:10034000ABE0B0E0E6EAF1E00C9461093C012B017E
:100350005A01FC0117821682838181FD03C06FEF71
:100360007FEFC6C19AE0892E1E010894211C311C22
:10037000F3012381F20123FD859123FF81912F0158
:10038000882309F4B2C1853239F423FD859123FF16
:1003900081912F01853229F490E0B3010E949303EB
:1003A000E7CF982FFF24EE249924FFE1FF15D0F02A
:1003B0009B3269F09C3228F4903259F0933291F4D8
:1003C0000EC09D3249F0903369F441E024C052E000
:1003D000F52A84E0F82A28C098E0F92A25C0E0E14F
:1003E000FE2A22C0F7FC29C0892F80538A3070F47E
:1003F000F6FE05C0989C902C1124980E15C0E89C20
:10040000E02C1124E80EF0E2FF2A0EC09E3229F4FF
:10041000F6FC6BC140E4F42A07C09C3619F450E89E
:10042000F52A02C0983649F4F20123FD959123FF85
:1004300091912F01992309F0B8CF892F85548330EA
:1004400018F08052833038F444E050E0A40EB51E1A
:100450005FE359830FC0933631F0933779F09335CA
:1004600009F056C020C0F5018081898342E050E048
:10047000A40EB51E610101E010E012C0F501C080BC
:10048000D180F6FC03C06FEF7FEF02C0692D70E0F2
:1004900042E050E0A40EB51EC6010E9488038C0104
:1004A0005FE7F52214C0F501C080D180F6FC03C0DF
:1004B0006FEF7FEF02C0692D70E042E050E0A40EC4
:1004C000B51EC6010E947D038C0150E8F52AF3FE9B
:1004D00007C01AC080E290E0B3010E949303EA943F
:1004E0008E2D90E008171907A8F30EC0F601F7FC4F
:1004F0008591F7FE81916F0190E0B3010E94930313
:10050000E110EA94015010400115110579F7EAC095
:10051000943611F0993669F5F7FE08C0F50120818F
:1005200031814281538184E090E00AC0F5018081ED
:1005300091819C01442737FD4095542F82E090E043
:10054000A80EB91E9FE6F92257FF09C050954095A5
:10055000309521953F4F4F4F5F4FE0E8FE2ACA018B
:10056000B901A1012AE030E00E94BF03D82ED218C1
:1005700040C0953729F41F2D1F7E2AE030E01DC0B2
:100580001F2D197F9F3661F0903720F4983509F0C0
:10059000ACC00FC0903739F0983709F0A6C004C03E
:1005A00028E030E00AC0106114FD146020E130E062
:1005B00004C014FD166020E132E017FF08C0F50109
:1005C000608171818281938144E050E008C0F5012F
:1005D00080819181BC0180E090E042E050E0A40E77
:1005E000B51EA1010E94BF03D82ED2188FE7F82EA6
:1005F000F122F6FE0BC05EEFF522D91438F4F4FEBA
:1006000007C0F2FC05C08FEEF82202C01D2D01C00C
:10061000192DF4FE0DC0FE01ED0DF11D808180331A
:1006200019F499EEF92208C01F5FF2FE05C003C05D
:100630008F2D867809F01F5F0F2DF3FC14C0F0FE9C
:100640000FC01E1510F09D2C0BC09D2C9E0C911AF6
:100650001E2D06C080E290E0B3010E9493031F5F4D
:100660001E15C0F304C01E1510F4E11A01C0EE24DB
:1006700004FF0FC080E390E0B3010E94930302FFE8
:100680001DC001FD03C088E790E00EC088E590E042
:100690000BC0802F867891F001FF02C08BE201C071
:1006A00080E2F7FC8DE290E0B3010E94930306C064
:1006B00080E390E0B3010E9493039A94D914C0F3AD
:1006C000DA94F101ED0DF11D808190E0B3010E94FB
:1006D0009303DD20A9F706C080E290E0B3010E94F9
:1006E0009303EA94EE20C1F743CEF301668177814C
:1006F000CB012B96E2E10C947D09FC010590615041
:1007000070400110D8F7809590958E0F9F1F089527
:10071000FC016150704001900110D8F780959095D0
:100720008E0F9F1F08950F931F93CF93DF938C011C
:10073000EB018B8181FF1BC082FF0DC02E813F81A9
:100740008C819D812817390764F4E881F981019330
:10075000F983E88306C0E885F985802F0995892B00
:1007600031F48E819F8101969F838E8302C00FEFAB
:100770001FEFC801DF91CF911F910F910895FA01EA
:10078000AA27283051F1203181F1E8946F936E7FD0
:100790006E5F7F4F8F4F9F4FAF4FB1E03ED0B4E0C1
:1007A0003CD0670F781F891F9A1FA11D680F791F02
:1007B0008A1F911DA11D6A0F711D811D911DA11D13
:1007C00020D009F468943F912AE0269F1124301923
:1007D000305D3193DEF6CF010895462F4770405DBE
:1007E0004193B3E00FD0C9F7F6CF462F4F70405D6D
:1007F0004A3318F0495D31FD4052419302D0A9F7C8
:10080000EACFB4E0A6959795879577956795BA95C1
:10081000C9F700976105710508959B01AC010A2E87
:1008200006945795479537952795BA95C9F7620F5E
:10083000731F841F951FA01D0895EF920F9382E2EE
:1008400091E067E046E022E004E03DE0E32E0E9414
:10085000E2060F91EF900895CF92DF92EF92FF9210
:100860000F931F93DF93CF93CDB7DEB764970FB687
:10087000F894DEBF0FBECDBF82E291E068E040E0B9
:1008800020E031E00E94A0060E9498076B017C01E5
:1008900068EE73E080E090E00E94A6070E9498074F
:1008A0002DB73EB7285030400FB6F8943EBF0FBE6C
:1008B0002DBFEDB7FEB731968E010F5F1F4FADB75D
:1008C000BEB712961C930E9311972BE031E0338341
:1008D00022836C197D098E099F0964837583868341
:1008E00097830E947C012DB73EB7285F3F4F0FB61C
:1008F000F8943EBF0FBE2DBF82E291E068E042E077
:1009000098010E94A0068DB79EB708970FB6F8947D
:100910009EBF0FBE8DBFEDB7FEB73196ADB7BEB768
:1009200012961C930E93119786E191E09383828334
:100930008091240390912503A0912603B091270371
:1009400084839583A683B7830E947C012DB73EB72D
:10095000285F3F4F0FB6F8943EBF0FBE2DBF82E217
:1009600091E068E044E098010E94A00660912403B1
:1009700070912503809126039091270320E330E0B6
:1009800040E050E00E941E099B01AC012115310599
:100990004105510571F460E070E080912803909169
:1009A0002903892B11F461E070E0709329036093AF
:1009B000280370E08091280390912903892B09F086
:1009C00071E082E291E063E0422F272F0E946405EC
:1009D0008091240390912503A0912603B0912703D1
:1009E0000196A11DB11D8093240390932503A0932C
:1009F0002603B093270364960FB6F894DEBF0FBEAC
:100A0000CDBFCF91DF911F910F91FF90EF90DF90BD
:100A1000CF9008950F931F9302E211E0C80160E0A8
:100A200040E00E944505C8010E94A606C80161E099
:100A30000E941D051F910F910895FC016083089588
:100A40000F931F93CF93DF93EC01062F142F8C810C
:100A50000E9479088A8160E00E9479088D816E8108
:100A600041E0212F0E94CD088A8161E00E9479082F
:100A7000013031F4FE01E150FE4F80818F5F8083B1
:100A8000DF91CF911F910F910895FF920F931F93C4
:100A90008C01262FF42E01501E4FF80161938F0117
:100AA0004083005012402068C80160E0422F0E943D
:100AB0002005F0E4FF2AC80160E04F2D0E942005C8
:100AC0001F910F91FF900895EF92FF920F931F9344
:100AD000CF93DF93EC01062F142FE22E643508F03C
:100AE0005EC0403308F05BC0F42EF694F694F694A2
:100AF0004F2D0E944505202F30E08F2D90E0412F93
:100B000050E0EE20E9F0F901EE0FFF1FE20FF31FB6
:100B1000EE0FFF1FEC0FFD1FE80FF91FA3E0880F7A
:100B2000991FAA95E1F7481B590B81E090E002C09C
:100B3000880F991F4A95E2F72781282B27831DC02C
:100B4000F901EE0FFF1FE20FF31FEE0FFF1FEC0F77
:100B5000FD1FE80FF91F33E0880F991F3A95E1F761
:100B6000481B590B81E090E002C0880F991F4A95FD
:100B7000E2F78095278182238783802F90E0FC0114
:100B8000EE0FFF1FE80FF91FEE0FFF1FEC0FFD1F09
:100B9000EF0DF11DCE0161E047810E942005DF913C
:100BA000CF911F910F91FF90EF9008957F928F92B8
:100BB0009F92AF92BF92CF92DF92EF92FF920F93EC
:100BC0001F93CF93DF93EC01742E85E06802B00190
:100BD00011248B01005A10405801AFEFEA2EA1E01A
:100BE000FA2EEC0EFD1EC12CF2E0DF2ECC0EDD1E27
:100BF000E5E68E2EEFEF9E2E860E971E772029F4C7
:100C0000F801E859FF4F349105C0F501E859FF4F4D
:100C1000349130958881882399F4F701808190E0A0
:100C2000F6012081FC01EE0FFF1FE80FF91FEE0F08
:100C3000FF1FEC0FFD1FE20FF11D8781382B10C045
:100C4000F6012081F701808190E0FC01EE0FFF1F8B
:100C5000E80FF91FEE0FFF1FEC0FFD1FE20FF11D54
:100C60003783F6012081F701808190E0FC01EE0FCF
:100C7000FF1FE80FF91FEE0FFF1FEC0FFD1FE20F24
:100C8000F11DCE0161E047810E9420050F5F1F4FDB
:100C90000894A11CB11C0815190509F0AFCF888173
:100CA000882349F000E010E081E0E82E82E0F82E91
:100CB000EC0EFD1E19C0CF5FDD4F6881C150D240E0
:100CC000F7018081680FCE01F60140810E94450541
:100CD00011C0772011F440E001C04FEFCE0161E078
:100CE0000E9420050F5F1F4FF701808190E00817D9
:100CF00019077CF3DF91CF911F910F91FF90EF9037
:100D0000DF90CF90BF90AF909F908F907F9008958D
:100D1000EF92FF920F93CF93DF937C01E9010E9442
:100D2000450505C02196C701402F0E94D605688160
:100D30006623C1F7DF91CF910F91FF90EF90089557
:100D40000F9300E00E9488060F910895CF92DF92E2
:100D5000EF92FF920F931F93CF93DF938C0160E08C
:100D600040E00E944505C0E0D0E016C0F6011082C8
:100D7000C80161E040E00E9420050894E11CF11CDC
:100D800086E090E0C80ED91E94E5E916F10471F7EB
:100D90002196C630D10541F027966801CC0EDD1EA4
:100DA0002797EE24FF24E2CF01501E4FF801119245
:100DB0001082DF91CF911F910F91FF90EF90DF9004
:100DC000CF900895CF92DF92EF920F936C01862F10
:100DD000F6016283438324830583E68210821182B5
:100DE00021E032E0C20ED31E91E0F60190832FEF96
:100DF0003DEFC20ED31E61E00E943A08F6018381E6
:100E000061E00E943A08F601848161E00E943A089C
:100E1000F601858161E00E943A08F601868161E071
:100E20000E943A08F601838160E00E947908F60189
:100E3000838161E00E947908C60160E041E20E947E
:100E40002005C60160E04FEB0E942005C60160E06E
:100E500044E00E942005C60160E044E10E942005B4
:100E6000C60160E04CE00E942005C60160E040E25F
:100E70000E942005C60160E04CE00E9420050F9111
:100E8000EF90DF90CF9008951F920F920FB60F92C0
:100E900011242F933F934F935F936F937F938F937F
:100EA0009F93AF93BF9320912E0330912F034091D6
:100EB00030035091310370913203DA01C901029677
:100EC000A11DB11D672F6A5F6D3730F06D57DA01D4
:100ED000C9010396A11DB11D6093320380932E03B7
:100EE00090932F03A0933003B093310380912A0392
:100EF00090912B03A0912C03B0912D030196A11D7D
:100F0000B11D80932A0390932B03A0932C03B093DD
:100F10002D03BF91AF919F918F917F916F915F91C1
:100F20004F913F912F910F900FBE0F901F901895EA
:100F30008FB7F89420912E0330912F034091300306
:100F4000509131038FBFB901CA0108959B01AC01D3
:100F50007FB7F89480912A0390912B03A0912C03E2
:100F6000B0912D0366B5A89B05C06F3F19F001969F
:100F7000A11DB11D7FBFBA2FA92F982F8827860FDB
:100F8000911DA11DB11D63E0880F991FAA1FBB1FF2
:100F90006A95D1F7BC012DC0FFB7F89480912A0360
:100FA00090912B03A0912C03B0912D03E6B5A89B43
:100FB00005C0EF3F19F00196A11DB11DFFBFBA2F6B
:100FC000A92F982F88278E0F911DA11DB11DE3E039
:100FD000880F991FAA1FBB1FEA95D1F7861B970B95
:100FE000885E9340C8F221503040404050406851E4
:100FF0007C4F211531054105510571F6089578940E
:1010000084B5826084BD84B5816084BD85B582600D
:1010100085BD85B5816085BDEEE6F0E080818160AB
:101020008083E1E8F0E010828081826080838081AB
:1010300081608083E0E8F0E0808181608083E1EB83
:10104000F0E0808184608083E0EBF0E0808181606B
:101050008083EAE7F0E08081846080838081826021
:10106000808380818160808380818068808310920A
:10107000C1000895CF93DF93482F50E0CA018658EE
:101080009D4FFC0134914A595D4FFA0184918823A8
:1010900069F190E0880F991FFC01E85BFD4FA59175
:1010A000B491FC01EE5AFD4FC591D491662351F4E1
:1010B0002FB7F8948C91932F909589238C938881E6
:1010C00089230BC0623061F42FB7F8948C91932F71
:1010D000909589238C938881832B88832FBF06C0AA
:1010E0009FB7F8948C91832B8C939FBFDF91CF9106
:1010F0000895482F50E0CA0182579D4FFC0124916A
:10110000CA0186589D4FFC0194914A595D4FFA01DE
:101110003491332309F440C0222351F1233071F07C
:10112000243028F42130A1F0223011F514C02630EB
:10113000B1F02730C1F02430D9F404C08091800090
:101140008F7703C0809180008F7D8093800010C0D6
:1011500084B58F7702C084B58F7D84BD09C080912E
:10116000B0008F7703C08091B0008F7D8093B00076
:10117000E32FF0E0EE0FFF1FEE5AFD4FA591B49163
:101180002FB7F894662321F48C919095892302C09F
:101190008C91892B8C932FBF0895BF92CF92DF92B1
:1011A000EF92FF920F931F93CF93DF93E82EF62ECB
:1011B000B42EC7E0D0E0022F10E087E0C82ED12C7B
:1011C000BB2059F4B6016C1B7D0BC80102C095957C
:1011D00087956A95E2F7BC0107C0B8010C2E02C0E2
:1011E000759567950A94E2F761708E2D0E947908D3
:1011F0008F2D61E00E9479088F2D60E00E947908B0
:1012000021979FEFCF3FD907D9F6DF91CF911F915B
:101210000F91FF90EF90DF90CF90BF900895CF9304
:10122000DF930E94FF070E940A05C0E0D0E00E9401
:101230002C042097E1F30E940000F9CF97FB092EC0
:1012400005260ED057FD04D014D00AD0001C38F467
:1012500050954095309521953F4F4F4F5F4F0895E2
:10126000F6F790958095709561957F4F8F4F9F4FC2
:101270000895A1E21A2EAA1BBB1BFD010DC0AA1FD7
:10128000BB1FEE1FFF1FA217B307E407F50720F0EF
:10129000A21BB30BE40BF50B661F771F881F991F6A
:1012A0001A9469F760957095809590959B01AC01B3
:1012B000BD01CF010895EE0FFF1F0590F491E02DC1
:1012C00009942F923F924F925F926F927F928F92EA
:1012D0009F92AF92BF92CF92DF92EF92FF920F93C5
:1012E0001F93CF93DF93CDB7DEB7CA1BDB0B0FB6CF
:1012F000F894DEBF0FBECDBF09942A88398848888C
:101300005F846E847D848C849B84AA84B984C88421
:10131000DF80EE80FD800C811B81AA81B981CE0F18
:10132000D11D0FB6F894DEBF0FBECDBFED010895FD
:04133000F894FFCF5F
:10133400416C746F796475696E6F00256C64206DFF
:10134400696C6C697300256C6420726F756E6473CC
:02135400000097
:00000001FF
